{
  "_format": "hh-sol-artifact-1",
  "contractName": "SingleSwap",
  "sourceName": "contracts/SingleSwap.sol",
  "abi": [
    {
      "inputs": [],
      "stateMutability": "nonpayable",
      "type": "constructor"
    },
    {
      "inputs": [],
      "name": "LINK",
      "outputs": [
        {
          "internalType": "address",
          "name": "",
          "type": "address"
        }
      ],
      "stateMutability": "view",
      "type": "function"
    },
    {
      "inputs": [],
      "name": "WETH",
      "outputs": [
        {
          "internalType": "address",
          "name": "",
          "type": "address"
        }
      ],
      "stateMutability": "view",
      "type": "function"
    },
    {
      "inputs": [],
      "name": "linkToken",
      "outputs": [
        {
          "internalType": "contract IERC20",
          "name": "",
          "type": "address"
        }
      ],
      "stateMutability": "view",
      "type": "function"
    },
    {
      "inputs": [],
      "name": "poolFee",
      "outputs": [
        {
          "internalType": "uint24",
          "name": "",
          "type": "uint24"
        }
      ],
      "stateMutability": "view",
      "type": "function"
    },
    {
      "inputs": [],
      "name": "routerAddress",
      "outputs": [
        {
          "internalType": "address",
          "name": "",
          "type": "address"
        }
      ],
      "stateMutability": "view",
      "type": "function"
    },
    {
      "inputs": [
        {
          "internalType": "uint256",
          "name": "amountIn",
          "type": "uint256"
        }
      ],
      "name": "swapExactInputSingle",
      "outputs": [
        {
          "internalType": "uint256",
          "name": "amountOut",
          "type": "uint256"
        }
      ],
      "stateMutability": "nonpayable",
      "type": "function"
    },
    {
      "inputs": [
        {
          "internalType": "uint256",
          "name": "amountOut",
          "type": "uint256"
        },
        {
          "internalType": "uint256",
          "name": "amountInMaximum",
          "type": "uint256"
        }
      ],
      "name": "swapExactOutputSingle",
      "outputs": [
        {
          "internalType": "uint256",
          "name": "amountIn",
          "type": "uint256"
        }
      ],
      "stateMutability": "nonpayable",
      "type": "function"
    },
    {
      "inputs": [],
      "name": "swapRouter",
      "outputs": [
        {
          "internalType": "contract ISwapRouter",
          "name": "",
          "type": "address"
        }
      ],
      "stateMutability": "view",
      "type": "function"
    }
  ],
  "bytecode": "0x60a060405273e592427a0aece92de3edee1f18e0157c0586156473ffffffffffffffffffffffffffffffffffffffff1660809073ffffffffffffffffffffffffffffffffffffffff1660601b81525073326c977e6efc84e512bb9c30f76e30c160ed06fb6000806101000a81548173ffffffffffffffffffffffffffffffffffffffff021916908373ffffffffffffffffffffffffffffffffffffffff1602179055503480156100ae57600080fd5b5060805160601c610d4b6100e56000398061023c5280610395528061046052806104c3528061061b528061070c5250610d4b6000f3fe608060405234801561001057600080fd5b50600436106100885760003560e01c806373bd43ad1161005b57806373bd43ad14610105578063ad5c464814610135578063c31c9c0714610153578063c4b69a181461017157610088565b8063089fe6aa1461008d5780631b6b6d23146100ab5780633268cc56146100c957806357970e93146100e7575b600080fd5b6100956101a1565b6040516100a29190610c00565b60405180910390f35b6100b36101a7565b6040516100c09190610b25565b60405180910390f35b6100d16101bf565b6040516100de9190610b25565b60405180910390f35b6100ef6101d7565b6040516100fc9190610b92565b60405180910390f35b61011f600480360381019061011a91906108bd565b6101fb565b60405161012c9190610c1b565b60405180910390f35b61013d610446565b60405161014a9190610b25565b60405180910390f35b61015b61045e565b6040516101689190610bad565b60405180910390f35b61018b6004803603810190610186919061090f565b610482565b6040516101989190610c1b565b60405180910390f35b610bb881565b73326c977e6efc84e512bb9c30f76e30c160ed06fb81565b73e592427a0aece92de3edee1f18e0157c0586156481565b60008054906101000a900473ffffffffffffffffffffffffffffffffffffffff1681565b60008060009054906101000a900473ffffffffffffffffffffffffffffffffffffffff1673ffffffffffffffffffffffffffffffffffffffff1663095ea7b37f0000000000000000000000000000000000000000000000000000000000000000846040518363ffffffff1660e01b8152600401610279929190610b69565b602060405180830381600087803b15801561029357600080fd5b505af11580156102a7573d6000803e3d6000fd5b505050506040513d601f19601f820116820180604052508101906102cb9190610894565b50600060405180610100016040528073326c977e6efc84e512bb9c30f76e30c160ed06fb73ffffffffffffffffffffffffffffffffffffffff16815260200173b4fbf271143f4fbf7b91a5ded31805e42b2208d673ffffffffffffffffffffffffffffffffffffffff168152602001610bb862ffffff1681526020013073ffffffffffffffffffffffffffffffffffffffff16815260200142815260200184815260200160008152602001600073ffffffffffffffffffffffffffffffffffffffff1681525090507f000000000000000000000000000000000000000000000000000000000000000073ffffffffffffffffffffffffffffffffffffffff1663414bf389826040518263ffffffff1660e01b81526004016103ec9190610bc8565b602060405180830381600087803b15801561040657600080fd5b505af115801561041a573d6000803e3d6000fd5b505050506040513d601f19601f8201168201806040525081019061043e91906108e6565b915050919050565b73b4fbf271143f4fbf7b91a5ded31805e42b2208d681565b7f000000000000000000000000000000000000000000000000000000000000000081565b60008060009054906101000a900473ffffffffffffffffffffffffffffffffffffffff1673ffffffffffffffffffffffffffffffffffffffff1663095ea7b37f0000000000000000000000000000000000000000000000000000000000000000846040518363ffffffff1660e01b8152600401610500929190610b69565b602060405180830381600087803b15801561051a57600080fd5b505af115801561052e573d6000803e3d6000fd5b505050506040513d601f19601f820116820180604052508101906105529190610894565b50600060405180610100016040528073326c977e6efc84e512bb9c30f76e30c160ed06fb73ffffffffffffffffffffffffffffffffffffffff16815260200173b4fbf271143f4fbf7b91a5ded31805e42b2208d673ffffffffffffffffffffffffffffffffffffffff168152602001610bb862ffffff1681526020013073ffffffffffffffffffffffffffffffffffffffff168152602001428152602001858152602001848152602001600073ffffffffffffffffffffffffffffffffffffffff1681525090507f000000000000000000000000000000000000000000000000000000000000000073ffffffffffffffffffffffffffffffffffffffff1663db3e2198826040518263ffffffff1660e01b81526004016106729190610be4565b602060405180830381600087803b15801561068c57600080fd5b505af11580156106a0573d6000803e3d6000fd5b505050506040513d601f19601f820116820180604052508101906106c491906108e6565b91508282101561084e5760008054906101000a900473ffffffffffffffffffffffffffffffffffffffff1673ffffffffffffffffffffffffffffffffffffffff1663095ea7b37f000000000000000000000000000000000000000000000000000000000000000060006040518363ffffffff1660e01b815260040161074a929190610b40565b602060405180830381600087803b15801561076457600080fd5b505af1158015610778573d6000803e3d6000fd5b505050506040513d601f19601f8201168201806040525081019061079c9190610894565b5060008054906101000a900473ffffffffffffffffffffffffffffffffffffffff1673ffffffffffffffffffffffffffffffffffffffff1663a9059cbb308486036040518363ffffffff1660e01b81526004016107fa929190610b69565b602060405180830381600087803b15801561081457600080fd5b505af1158015610828573d6000803e3d6000fd5b505050506040513d601f19601f8201168201806040525081019061084c9190610894565b505b5092915050565b60008151905061086481610ce7565b92915050565b60008135905061087981610cfe565b92915050565b60008151905061088e81610cfe565b92915050565b6000602082840312156108a657600080fd5b60006108b484828501610855565b91505092915050565b6000602082840312156108cf57600080fd5b60006108dd8482850161086a565b91505092915050565b6000602082840312156108f857600080fd5b60006109068482850161087f565b91505092915050565b6000806040838503121561092257600080fd5b60006109308582860161086a565b92505060206109418582860161086a565b9150509250929050565b61095481610c36565b82525050565b61096381610c36565b82525050565b61097281610c8d565b82525050565b61098181610cb1565b82525050565b61099081610cd5565b82525050565b610100820160008201516109ad600085018261094b565b5060208201516109c0602085018261094b565b5060408201516109d36040850182610ae9565b5060608201516109e6606085018261094b565b5060808201516109f96080850182610b07565b5060a0820151610a0c60a0850182610b07565b5060c0820151610a1f60c0850182610b07565b5060e0820151610a3260e0850182610ada565b50505050565b61010082016000820151610a4f600085018261094b565b506020820151610a62602085018261094b565b506040820151610a756040850182610ae9565b506060820151610a88606085018261094b565b506080820151610a9b6080850182610b07565b5060a0820151610aae60a0850182610b07565b5060c0820151610ac160c0850182610b07565b5060e0820151610ad460e0850182610ada565b50505050565b610ae381610c54565b82525050565b610af281610c74565b82525050565b610b0181610c74565b82525050565b610b1081610c83565b82525050565b610b1f81610c83565b82525050565b6000602082019050610b3a600083018461095a565b92915050565b6000604082019050610b55600083018561095a565b610b626020830184610987565b9392505050565b6000604082019050610b7e600083018561095a565b610b8b6020830184610b16565b9392505050565b6000602082019050610ba76000830184610969565b92915050565b6000602082019050610bc26000830184610978565b92915050565b600061010082019050610bde6000830184610996565b92915050565b600061010082019050610bfa6000830184610a38565b92915050565b6000602082019050610c156000830184610af8565b92915050565b6000602082019050610c306000830184610b16565b92915050565b6000610c4182610c54565b9050919050565b60008115159050919050565b600073ffffffffffffffffffffffffffffffffffffffff82169050919050565b600062ffffff82169050919050565b6000819050919050565b6000610c9882610c9f565b9050919050565b6000610caa82610c54565b9050919050565b6000610cbc82610cc3565b9050919050565b6000610cce82610c54565b9050919050565b6000610ce082610c83565b9050919050565b610cf081610c48565b8114610cfb57600080fd5b50565b610d0781610c83565b8114610d1257600080fd5b5056fea2646970667358221220641dfcab2c0b19428063eb2e44013415c27f8b15b3b2e5c244961531cdddbce364736f6c63430007060033",
  "linkReferences": {},
  "deployedLinkReferences": {}
}